{
  "contractName": "Offers",
  "abi": [
    {
      "constant": true,
      "inputs": [],
      "name": "cfoAddress",
      "outputs": [
        {
          "name": "",
          "type": "address"
        }
      ],
      "payable": false,
      "stateMutability": "view",
      "type": "function"
    },
    {
      "constant": true,
      "inputs": [],
      "name": "frozen",
      "outputs": [
        {
          "name": "",
          "type": "bool"
        }
      ],
      "payable": false,
      "stateMutability": "view",
      "type": "function"
    },
    {
      "constant": true,
      "inputs": [],
      "name": "ceoAddress",
      "outputs": [
        {
          "name": "",
          "type": "address"
        }
      ],
      "payable": false,
      "stateMutability": "view",
      "type": "function"
    },
    {
      "constant": true,
      "inputs": [],
      "name": "globalDuration",
      "outputs": [
        {
          "name": "",
          "type": "uint256"
        }
      ],
      "payable": false,
      "stateMutability": "view",
      "type": "function"
    },
    {
      "constant": false,
      "inputs": [
        {
          "name": "_newLostAndFound",
          "type": "address"
        }
      ],
      "name": "setLostAndFound",
      "outputs": [],
      "payable": false,
      "stateMutability": "nonpayable",
      "type": "function"
    },
    {
      "constant": false,
      "inputs": [
        {
          "name": "_newCEO",
          "type": "address"
        }
      ],
      "name": "setCEO",
      "outputs": [],
      "payable": false,
      "stateMutability": "nonpayable",
      "type": "function"
    },
    {
      "constant": false,
      "inputs": [
        {
          "name": "_newCOO",
          "type": "address"
        }
      ],
      "name": "setCOO",
      "outputs": [],
      "payable": false,
      "stateMutability": "nonpayable",
      "type": "function"
    },
    {
      "constant": false,
      "inputs": [
        {
          "name": "_newOfferCut",
          "type": "uint256"
        }
      ],
      "name": "setOfferCut",
      "outputs": [],
      "payable": false,
      "stateMutability": "nonpayable",
      "type": "function"
    },
    {
      "constant": true,
      "inputs": [],
      "name": "lostAndFoundAddress",
      "outputs": [
        {
          "name": "",
          "type": "address"
        }
      ],
      "payable": false,
      "stateMutability": "view",
      "type": "function"
    },
    {
      "constant": false,
      "inputs": [
        {
          "name": "_newMinimumPriceIncrement",
          "type": "uint256"
        }
      ],
      "name": "setMinimumPriceIncrement",
      "outputs": [],
      "payable": false,
      "stateMutability": "nonpayable",
      "type": "function"
    },
    {
      "constant": false,
      "inputs": [],
      "name": "withdrawTotalLostAndFoundBalance",
      "outputs": [],
      "payable": false,
      "stateMutability": "nonpayable",
      "type": "function"
    },
    {
      "constant": false,
      "inputs": [
        {
          "name": "_newMinTotal",
          "type": "uint256"
        }
      ],
      "name": "setMinimumTotalValue",
      "outputs": [],
      "payable": false,
      "stateMutability": "nonpayable",
      "type": "function"
    },
    {
      "constant": false,
      "inputs": [
        {
          "name": "_newCFO",
          "type": "address"
        }
      ],
      "name": "setCFO",
      "outputs": [],
      "payable": false,
      "stateMutability": "nonpayable",
      "type": "function"
    },
    {
      "constant": true,
      "inputs": [],
      "name": "totalCFOEarnings",
      "outputs": [
        {
          "name": "",
          "type": "uint256"
        }
      ],
      "payable": false,
      "stateMutability": "view",
      "type": "function"
    },
    {
      "constant": false,
      "inputs": [],
      "name": "freeze",
      "outputs": [],
      "payable": false,
      "stateMutability": "nonpayable",
      "type": "function"
    },
    {
      "constant": true,
      "inputs": [],
      "name": "minimumTotalValue",
      "outputs": [
        {
          "name": "",
          "type": "uint256"
        }
      ],
      "payable": false,
      "stateMutability": "view",
      "type": "function"
    },
    {
      "constant": true,
      "inputs": [],
      "name": "totalLostAndFoundBalance",
      "outputs": [
        {
          "name": "",
          "type": "uint256"
        }
      ],
      "payable": false,
      "stateMutability": "view",
      "type": "function"
    },
    {
      "constant": false,
      "inputs": [
        {
          "name": "_newDuration",
          "type": "uint256"
        }
      ],
      "name": "setGlobalDuration",
      "outputs": [],
      "payable": false,
      "stateMutability": "nonpayable",
      "type": "function"
    },
    {
      "constant": false,
      "inputs": [],
      "name": "withdrawTotalCFOEarnings",
      "outputs": [],
      "payable": false,
      "stateMutability": "nonpayable",
      "type": "function"
    },
    {
      "constant": true,
      "inputs": [],
      "name": "cooAddress",
      "outputs": [
        {
          "name": "",
          "type": "address"
        }
      ],
      "payable": false,
      "stateMutability": "view",
      "type": "function"
    },
    {
      "constant": true,
      "inputs": [],
      "name": "offerCut",
      "outputs": [
        {
          "name": "",
          "type": "uint256"
        }
      ],
      "payable": false,
      "stateMutability": "view",
      "type": "function"
    },
    {
      "constant": false,
      "inputs": [
        {
          "name": "_newUnsuccessfulFee",
          "type": "uint256"
        }
      ],
      "name": "setUnsuccessfulFee",
      "outputs": [],
      "payable": false,
      "stateMutability": "nonpayable",
      "type": "function"
    },
    {
      "constant": true,
      "inputs": [],
      "name": "unsuccessfulFee",
      "outputs": [
        {
          "name": "",
          "type": "uint256"
        }
      ],
      "payable": false,
      "stateMutability": "view",
      "type": "function"
    },
    {
      "constant": true,
      "inputs": [
        {
          "name": "",
          "type": "uint256"
        }
      ],
      "name": "tokenIdToOffer",
      "outputs": [
        {
          "name": "expiresAt",
          "type": "uint64"
        },
        {
          "name": "bidder",
          "type": "address"
        },
        {
          "name": "offerCut",
          "type": "uint16"
        },
        {
          "name": "total",
          "type": "uint128"
        },
        {
          "name": "unsuccessfulFee",
          "type": "uint128"
        }
      ],
      "payable": false,
      "stateMutability": "view",
      "type": "function"
    },
    {
      "constant": true,
      "inputs": [],
      "name": "minimumPriceIncrement",
      "outputs": [
        {
          "name": "",
          "type": "uint256"
        }
      ],
      "payable": false,
      "stateMutability": "view",
      "type": "function"
    },
    {
      "constant": true,
      "inputs": [],
      "name": "nonFungibleContract",
      "outputs": [
        {
          "name": "",
          "type": "address"
        }
      ],
      "payable": false,
      "stateMutability": "view",
      "type": "function"
    },
    {
      "inputs": [
        {
          "name": "_nftAddress",
          "type": "address"
        },
        {
          "name": "_cooAddress",
          "type": "address"
        },
        {
          "name": "_globalDuration",
          "type": "uint256"
        },
        {
          "name": "_minimumTotalValue",
          "type": "uint256"
        },
        {
          "name": "_minimumPriceIncrement",
          "type": "uint256"
        },
        {
          "name": "_unsuccessfulFee",
          "type": "uint256"
        },
        {
          "name": "_offerCut",
          "type": "uint256"
        }
      ],
      "payable": false,
      "stateMutability": "nonpayable",
      "type": "constructor"
    },
    {
      "payable": true,
      "stateMutability": "payable",
      "type": "fallback"
    },
    {
      "anonymous": false,
      "inputs": [
        {
          "indexed": false,
          "name": "tokenId",
          "type": "uint256"
        },
        {
          "indexed": false,
          "name": "bidder",
          "type": "address"
        },
        {
          "indexed": false,
          "name": "expiresAt",
          "type": "uint256"
        },
        {
          "indexed": false,
          "name": "total",
          "type": "uint256"
        },
        {
          "indexed": false,
          "name": "offerPrice",
          "type": "uint256"
        }
      ],
      "name": "OfferCreated",
      "type": "event"
    },
    {
      "anonymous": false,
      "inputs": [
        {
          "indexed": false,
          "name": "tokenId",
          "type": "uint256"
        },
        {
          "indexed": false,
          "name": "bidder",
          "type": "address"
        },
        {
          "indexed": false,
          "name": "bidderReceived",
          "type": "uint256"
        },
        {
          "indexed": false,
          "name": "fee",
          "type": "uint256"
        }
      ],
      "name": "OfferCancelled",
      "type": "event"
    },
    {
      "anonymous": false,
      "inputs": [
        {
          "indexed": false,
          "name": "tokenId",
          "type": "uint256"
        },
        {
          "indexed": false,
          "name": "bidder",
          "type": "address"
        },
        {
          "indexed": false,
          "name": "owner",
          "type": "address"
        },
        {
          "indexed": false,
          "name": "ownerReceived",
          "type": "uint256"
        },
        {
          "indexed": false,
          "name": "fee",
          "type": "uint256"
        }
      ],
      "name": "OfferFulfilled",
      "type": "event"
    },
    {
      "anonymous": false,
      "inputs": [
        {
          "indexed": false,
          "name": "tokenId",
          "type": "uint256"
        },
        {
          "indexed": false,
          "name": "bidder",
          "type": "address"
        },
        {
          "indexed": false,
          "name": "newExpiresAt",
          "type": "uint256"
        },
        {
          "indexed": false,
          "name": "totalRaised",
          "type": "uint256"
        }
      ],
      "name": "OfferUpdated",
      "type": "event"
    },
    {
      "anonymous": false,
      "inputs": [
        {
          "indexed": false,
          "name": "tokenId",
          "type": "uint256"
        },
        {
          "indexed": false,
          "name": "bidder",
          "type": "address"
        },
        {
          "indexed": false,
          "name": "bidderReceived",
          "type": "uint256"
        },
        {
          "indexed": false,
          "name": "fee",
          "type": "uint256"
        }
      ],
      "name": "ExpiredOfferRemoved",
      "type": "event"
    },
    {
      "anonymous": false,
      "inputs": [
        {
          "indexed": false,
          "name": "tokenId",
          "type": "uint256"
        },
        {
          "indexed": false,
          "name": "bidder",
          "type": "address"
        },
        {
          "indexed": false,
          "name": "amount",
          "type": "uint256"
        }
      ],
      "name": "BidderWithdrewFundsWhenFrozen",
      "type": "event"
    },
    {
      "anonymous": false,
      "inputs": [
        {
          "indexed": false,
          "name": "tokenId",
          "type": "uint256"
        },
        {
          "indexed": false,
          "name": "to",
          "type": "address"
        },
        {
          "indexed": false,
          "name": "amount",
          "type": "uint256"
        }
      ],
      "name": "PushFundsFailed",
      "type": "event"
    },
    {
      "anonymous": false,
      "inputs": [
        {
          "indexed": false,
          "name": "value",
          "type": "uint256"
        }
      ],
      "name": "GlobalDurationUpdated",
      "type": "event"
    },
    {
      "anonymous": false,
      "inputs": [
        {
          "indexed": false,
          "name": "value",
          "type": "uint256"
        }
      ],
      "name": "MinimumTotalValueUpdated",
      "type": "event"
    },
    {
      "anonymous": false,
      "inputs": [
        {
          "indexed": false,
          "name": "value",
          "type": "uint256"
        }
      ],
      "name": "MinimumPriceIncrementUpdated",
      "type": "event"
    },
    {
      "anonymous": false,
      "inputs": [
        {
          "indexed": false,
          "name": "value",
          "type": "uint256"
        }
      ],
      "name": "OfferCutUpdated",
      "type": "event"
    },
    {
      "anonymous": false,
      "inputs": [
        {
          "indexed": false,
          "name": "value",
          "type": "uint256"
        }
      ],
      "name": "UnsuccessfulFeeUpdated",
      "type": "event"
    },
    {
      "constant": false,
      "inputs": [
        {
          "name": "_tokenId",
          "type": "uint256"
        }
      ],
      "name": "createOffer",
      "outputs": [],
      "payable": true,
      "stateMutability": "payable",
      "type": "function"
    },
    {
      "constant": false,
      "inputs": [
        {
          "name": "_tokenId",
          "type": "uint256"
        }
      ],
      "name": "cancelOffer",
      "outputs": [],
      "payable": false,
      "stateMutability": "nonpayable",
      "type": "function"
    },
    {
      "constant": false,
      "inputs": [
        {
          "name": "_tokenId",
          "type": "uint256"
        },
        {
          "name": "_minOfferPrice",
          "type": "uint128"
        }
      ],
      "name": "fulfillOffer",
      "outputs": [],
      "payable": false,
      "stateMutability": "nonpayable",
      "type": "function"
    },
    {
      "constant": false,
      "inputs": [
        {
          "name": "_tokenIds",
          "type": "uint256[]"
        }
      ],
      "name": "batchRemoveExpired",
      "outputs": [],
      "payable": false,
      "stateMutability": "nonpayable",
      "type": "function"
    },
    {
      "constant": false,
      "inputs": [
        {
          "name": "_tokenId",
          "type": "uint256"
        }
      ],
      "name": "updateOffer",
      "outputs": [],
      "payable": true,
      "stateMutability": "payable",
      "type": "function"
    },
    {
      "constant": false,
      "inputs": [
        {
          "name": "_tokenId",
          "type": "uint256"
        }
      ],
      "name": "bidderWithdrawFunds",
      "outputs": [],
      "payable": false,
      "stateMutability": "nonpayable",
      "type": "function"
    }
  ],
  "bytecode": "0x60806040526006805460ff191690553480156200001b57600080fd5b5060405160e08062002d098339810160408181528251602080850151838601516060870151608088015160a089015160c09099015160008054600160a060020a031916331781557f01ffc9a7000000000000000000000000000000000000000000000000000000008a527f9a20483d0000000000000000000000000000000000000000000000000000000060048b015297519699949893979296919590938a93600160a060020a038516936301ffc9a7936024808501949193918390030190829087803b158015620000ec57600080fd5b505af115801562000101573d6000803e3d6000fd5b505050506040513d60208110156200011857600080fd5b50511515620001ae57604080517f08c379a000000000000000000000000000000000000000000000000000000000815260206004820152602e60248201527f4e465420436f6e7472616374206e6565647320746f20737570706f727420455260448201527f4337323120496e74657266616365000000000000000000000000000000000000606482015290519081900360840190fd5b600d8054600160a060020a031916600160a060020a038316179055620001dd8764010000000062000232810204565b6007869055600a839055620001fb8264010000000062000392810204565b6200020f846401000000006200042f810204565b620002248584640100000000620004cc810204565b50505050505050506200056b565b600054600160a060020a03163314620002d257604080517f08c379a000000000000000000000000000000000000000000000000000000000815260206004820152602d60248201527f6f6e6c792043454f20697320616c6c6f77656420746f20706572666f726d207460448201527f686973206f7065726174696f6e00000000000000000000000000000000000000606482015290519081900360840190fd5b600160a060020a03811615156200037057604080517f08c379a000000000000000000000000000000000000000000000000000000000815260206004820152602a60248201527f6e657720434f4f20616464726573732063616e6e6f7420626520746865207a6560448201527f726f2d6163636f756e7400000000000000000000000000000000000000000000606482015290519081900360840190fd5b60018054600160a060020a031916600160a060020a0392909216919091179055565b6127108111156200042a57604080517f08c379a000000000000000000000000000000000000000000000000000000000815260206004820152602560248201527f6f6666657220637574206d75737420626520612076616c69642062617369732060448201527f706f696e74000000000000000000000000000000000000000000000000000000606482015290519081900360840190fd5b600b55565b612710811115620004c757604080517f08c379a000000000000000000000000000000000000000000000000000000000815260206004820152603360248201527f6d696e696d756d20707269636520696e6372656d656e74206d7573742062652060448201527f612076616c696420626173697320706f696e7400000000000000000000000000606482015290519081900360840190fd5b600955565b600281028210156200056557604080517f08c379a000000000000000000000000000000000000000000000000000000000815260206004820152602d60248201527f6d696e696d756d2076616c7565206d757374206265203e3d2032202a20756e7360448201527f75636365737366756c2066656500000000000000000000000000000000000000606482015290519081900360840190fd5b50600855565b61278e806200057b6000396000f30060806040526004361061017c5763ffffffff60e060020a6000350416630519ce7981146101cc578063054f7d9c146101fd5780630a0f81681461022657806314806a321461023b5780631c091a5f146102625780631f7474581461028457806327d7874c146102a55780632ba73c15146102c65780632d5796ac146102e7578063302890e1146102ff5780633a3d55a01461031457806345394dad1461032c5780634ae772a4146103415780634e0a3379146103595780634e8dc0031461037a57806356d282fc1461039e5780635ac165af146103a957806362a5af3b146103be57806369250729146103d35780637ae86385146103e85780638c0ceea5146103fd578063930add2914610415578063a269993d1461042a578063b047fb5014610435578063bea12e001461044a578063bff2273e1461045f578063c65b98e714610477578063d531fe2b1461048c578063db341765146104f1578063dd1b7a0f14610506578063e1302e2b1461051b578063ef706adf14610533575b6040805160e560020a62461bcd02815260206004820152601d60248201527f776520646f6e27742061636365707420616e79207061796d656e747321000000604482015290519081900360640190fd5b3480156101d857600080fd5b506101e161054b565b60408051600160a060020a039092168252519081900360200190f35b34801561020957600080fd5b5061021261055a565b604080519115158252519081900360200190f35b34801561023257600080fd5b506101e1610563565b34801561024757600080fd5b50610250610572565b60408051918252519081900360200190f35b34801561026e57600080fd5b506102826004803560248101910135610578565b005b34801561029057600080fd5b50610282600160a060020a036004351661073f565b3480156102b157600080fd5b50610282600160a060020a0360043516610858565b3480156102d257600080fd5b50610282600160a060020a0360043516610971565b3480156102f357600080fd5b50610282600435610a8a565b34801561030b57600080fd5b506101e1610b76565b34801561032057600080fd5b50610282600435610b85565b34801561033857600080fd5b50610282610c71565b34801561034d57600080fd5b50610282600435610d53565b34801561036557600080fd5b50610282600160a060020a0360043516610e42565b34801561038657600080fd5b506102826004356001608060020a0360243516610f5b565b6102826004356113d6565b3480156103b557600080fd5b5061025061165f565b3480156103ca57600080fd5b50610282611665565b3480156103df57600080fd5b50610250611766565b3480156103f457600080fd5b5061025061176c565b34801561040957600080fd5b50610282600435611772565b34801561042157600080fd5b506102826118e1565b6102826004356119ad565b34801561044157600080fd5b506101e1611da3565b34801561045657600080fd5b50610250611db2565b34801561046b57600080fd5b50610282600435611db8565b34801561048357600080fd5b50610250611f23565b34801561049857600080fd5b506104a4600435611f29565b6040805167ffffffffffffffff9096168652600160a060020a03909416602086015261ffff909216848401526001608060020a039081166060850152166080830152519081900360a00190f35b3480156104fd57600080fd5b50610250611f92565b34801561051257600080fd5b506101e1611f98565b34801561052757600080fd5b50610282600435611fa7565b34801561053f57600080fd5b506102826004356121e3565b600254600160a060020a031681565b60065460ff1681565b600054600160a060020a031681565b60075481565b6000806000806000806000806000600660009054906101000a900460ff161515156105db576040805160e560020a62461bcd02815260206004820152601f6024820152600080516020612743833981519152604482015290519081900360640190fd5b899850600097508796505b88871015610720578a8a888181106105fa57fe5b602090810292909201356000818152600c9093526040909220805492985096505067ffffffffffffffff16935061063084612491565b151561063b57610715565b61064484612497565b1561064e57610715565b505082546001808501546000878152600c602052604081208054600160f060020a03191681559092019190915570010000000000000000000000000000000081046001608060020a039081169889019868010000000000000000909304600160a060020a03169350168190036106c586848361249c565b60408051878152600160a060020a03851660208201528082018390526060810184905290517fd876ee5dd9082a3ac4fe7be4799528f1d5f3545cee1516f2821d0f8ecc9d629c9181900360800190a15b6001909601956105e6565b60008811156107325760048054890190555b5050505050505050505050565b600054600160a060020a031633146107a3576040805160e560020a62461bcd02815260206004820152602d602482015260008051602061270383398151915260448201526000805160206126e3833981519152606482015290519081900360840190fd5b600160a060020a0381161515610829576040805160e560020a62461bcd02815260206004820152602d60248201527f6e6577206c6f737420616e6420666f756e642063616e6e6f742062652074686560448201527f207a65726f2d6163636f756e7400000000000000000000000000000000000000606482015290519081900360840190fd5b6003805473ffffffffffffffffffffffffffffffffffffffff1916600160a060020a0392909216919091179055565b600054600160a060020a031633146108bc576040805160e560020a62461bcd02815260206004820152602d602482015260008051602061270383398151915260448201526000805160206126e3833981519152606482015290519081900360840190fd5b600160a060020a0381161515610942576040805160e560020a62461bcd02815260206004820152602a60248201527f6e65772043454f20616464726573732063616e6e6f7420626520746865207a6560448201527f726f2d6163636f756e7400000000000000000000000000000000000000000000606482015290519081900360840190fd5b6000805473ffffffffffffffffffffffffffffffffffffffff1916600160a060020a0392909216919091179055565b600054600160a060020a031633146109d5576040805160e560020a62461bcd02815260206004820152602d602482015260008051602061270383398151915260448201526000805160206126e3833981519152606482015290519081900360840190fd5b600160a060020a0381161515610a5b576040805160e560020a62461bcd02815260206004820152602a60248201527f6e657720434f4f20616464726573732063616e6e6f7420626520746865207a6560448201527f726f2d6163636f756e7400000000000000000000000000000000000000000000606482015290519081900360840190fd5b6001805473ffffffffffffffffffffffffffffffffffffffff1916600160a060020a0392909216919091179055565b600154600160a060020a03163314610aee576040805160e560020a62461bcd02815260206004820152602d602482015260008051602061272383398151915260448201526000805160206126e3833981519152606482015290519081900360840190fd5b60065460ff1615610b37576040805160e560020a62461bcd02815260206004820152601f6024820152600080516020612743833981519152604482015290519081900360640190fd5b610b4081612523565b6040805182815290517f4a13d5076f950a8eb96f30e1f814eecade18fcebc5042f3ce669cea283edaefd9181900360200190a150565b600354600160a060020a031681565b600154600160a060020a03163314610be9576040805160e560020a62461bcd02815260206004820152602d602482015260008051602061272383398151915260448201526000805160206126e3833981519152606482015290519081900360840190fd5b60065460ff1615610c32576040805160e560020a62461bcd02815260206004820152601f6024820152600080516020612743833981519152604482015290519081900360640190fd5b610c3b816125a8565b6040805182815290517f2fa1029ea9a56473df3e068ba4dc7f4343efacb8a54b808f595f78d1d62f00359181900360200190a150565b600354600090600160a060020a031633148015610c8d57503315155b1515610d09576040805160e560020a62461bcd02815260206004820152603660248201527f6f6e6c79204c6f7374416e64466f756e6420697320616c6c6f77656420746f2060448201527f706572666f726d2074686973206f7065726174696f6e00000000000000000000606482015290519081900360840190fd5b50600580546000918290556003546040519192600160a060020a039091169183156108fc0291849190818181858888f19350505050158015610d4f573d6000803e3d6000fd5b5050565b600154600160a060020a03163314610db7576040805160e560020a62461bcd02815260206004820152602d602482015260008051602061272383398151915260448201526000805160206126e3833981519152606482015290519081900360840190fd5b60065460ff1615610e00576040805160e560020a62461bcd02815260206004820152601f6024820152600080516020612743833981519152604482015290519081900360640190fd5b610e0c81600a5461262d565b6040805182815290517f4193e3b6c8a874196e0068cb9b96b2aaef71a2d90fc46254c4508e1003996bd59181900360200190a150565b600054600160a060020a03163314610ea6576040805160e560020a62461bcd02815260206004820152602d602482015260008051602061270383398151915260448201526000805160206126e3833981519152606482015290519081900360840190fd5b600160a060020a0381161515610f2c576040805160e560020a62461bcd02815260206004820152602a60248201527f6e65772043464f20616464726573732063616e6e6f7420626520746865207a6560448201527f726f2d6163636f756e7400000000000000000000000000000000000000000000606482015290519081900360840190fd5b6002805473ffffffffffffffffffffffffffffffffffffffff1916600160a060020a0392909216919091179055565b60065460009081908190819081908190819060ff1615610fb3576040805160e560020a62461bcd02815260206004820152601f6024820152600080516020612743833981519152604482015290519081900360640190fd5b6000898152600c60205260409020805490975067ffffffffffffffff169550610fdb86612491565b1515611031576040805160e560020a62461bcd02815260206004820152601b60248201527f6f6666657220746f2066756c66696c6c206d7573742065786973740000000000604482015290519081900360640190fd5b61103a86612497565b15156110b5576040805160e560020a62461bcd028152602060048201526024808201527f6f6666657220746f2066756c66696c6c206d757374206e6f742062652065787060448201527f6972656400000000000000000000000000000000000000000000000000000000606482015290519081900360840190fd5b600d54604080517f6352211e000000000000000000000000000000000000000000000000000000008152600481018c90529051600160a060020a0390921691636352211e916024808201926020929091908290030181600087803b15801561111c57600080fd5b505af1158015611130573d6000803e3d6000fd5b505050506040513d602081101561114657600080fd5b5051600154909550600160a060020a031633148061116c575033600160a060020a038616145b15156111e8576040805160e560020a62461bcd02815260206004820152602760248201527f6f6e6c7920434f4f206f7220746865206f776e65722063616e2066756c66696c60448201527f6c206f7264657200000000000000000000000000000000000000000000000000606482015290519081900360840190fd5b600187015487546001608060020a03909116945061121290859060e060020a900461ffff166126b4565b92506001608060020a03881683101561129b576040805160e560020a62461bcd02815260206004820152602c60248201527f63616e6e6f742066756c66696c6c206f6666657220e28093206f66666572207060448201527f7269636520746f6f206c6f770000000000000000000000000000000000000000606482015290519081900360840190fd5b865460008a8152600c60205260408082208054600160f060020a0319168155600101829055600d5481517f23b872dd000000000000000000000000000000000000000000000000000000008152600160a060020a038a8116600483015268010000000000000000909504851660248201819052604482018f905292519296509316926323b872dd92606480830193919282900301818387803b15801561134057600080fd5b505af1158015611354573d6000803e3d6000fd5b505060048054868803908101909155925061137491508a9050868561249c565b604080518a8152600160a060020a038085166020830152871681830152606081018590526080810183905290517f9accbcf984c4cd67a675ee4d38143974e1fa62aa95da283bd4ca645e408ec2839181900360a00190a1505050505050505050565b6006546000908190819060ff1615611426576040805160e560020a62461bcd02815260206004820152601f6024820152600080516020612743833981519152604482015290519081900360640190fd5b6000848152600c60205260409020805490935067ffffffffffffffff16915061144e82612491565b15156114a4576040805160e560020a62461bcd02815260206004820152601a60248201527f6f6666657220746f20757064617465206d757374206578697374000000000000604482015290519081900360640190fd5b6114ad82612497565b1515611529576040805160e560020a62461bcd02815260206004820152602360248201527f6f6666657220746f20757064617465206d757374206e6f74206265206578706960448201527f7265640000000000000000000000000000000000000000000000000000000000606482015290519081900360840190fd5b8254680100000000000000009004600160a060020a031633146115bc576040805160e560020a62461bcd02815260206004820152602c60248201527f63616c6c6572206d75737420626520626964646572206f66206f66666572207460448201527f6f20626520757064617465640000000000000000000000000000000000000000606482015290519081900360840190fd5b50600754420160003411156115f8576001830180546001608060020a038082163401166fffffffffffffffffffffffffffffffff199091161790555b825467ffffffffffffffff191667ffffffffffffffff82161783556040805185815233602082015280820183905234606082015290517f56cb95d5e0f3ba4459f610fef3ba603635cef803d945e97c316cdeb392903991916080908290030190a150505050565b60045481565b33158015906116925750600054600160a060020a03163314806116925750600254600160a060020a031633145b151561170e576040805160e560020a62461bcd02815260206004820152603460248201527f6f6e6c792043454f206f722043464f20697320616c6c6f77656420746f20706560448201527f72666f726d2074686973206f7065726174696f6e000000000000000000000000606482015290519081900360840190fd5b60065460ff1615611757576040805160e560020a62461bcd02815260206004820152601f6024820152600080516020612743833981519152604482015290519081900360640190fd5b6006805460ff19166001179055565b60085481565b60055481565b600154600160a060020a031633146117d6576040805160e560020a62461bcd02815260206004820152602d602482015260008051602061272383398151915260448201526000805160206126e3833981519152606482015290519081900360840190fd5b60065460ff161561181f576040805160e560020a62461bcd02815260206004820152601f6024820152600080516020612743833981519152604482015290519081900360640190fd5b67ffffffffffffffff811681146118a6576040805160e560020a62461bcd02815260206004820152602b60248201527f6e657720676c6f62616c4475726174696f6e2076616c7565206d757374206e6f60448201527f7420756e646572666c6f77000000000000000000000000000000000000000000606482015290519081900360840190fd5b60078190556040805182815290517f66be647974b8677ccbdb171c9fd037f0f64af878ddc5b7f0923da6a32173ae479181900360200190a150565b600254600090600160a060020a0316331480156118fd57503315155b1515611967576040805160e560020a62461bcd02815260206004820152602d60248201527f6f6e6c792043464f20697320616c6c6f77656420746f20706572666f726d207460448201526000805160206126e3833981519152606482015290519081900360840190fd5b50600480546000918290556002546040519192600160a060020a039091169183156108fc0291849190818181858888f19350505050158015610d4f573d6000803e3d6000fd5b6000806000806000806000806000806000600660009054906101000a900460ff16151515611a13576040805160e560020a62461bcd02815260206004820152601f6024820152600080516020612743833981519152604482015290519081900360640190fd5b600854341015611a93576040805160e560020a62461bcd02815260206004820152603160248201527f6f6666657220746f74616c2076616c7565206d7573742062652061626f76652060448201527f6d696e696d756d546f74616c56616c7565000000000000000000000000000000606482015290519081900360840190fd5b600b549a50611aa2348c6126b4565b60008d8152600c602052604081208054929c509a5067ffffffffffffffff90911698509650611ad088612491565b15611bca5760018901546001608060020a03169550611aee88612497565b15611b96578854611b0b90879060e060020a900461ffff166126b4565b9450611b16856126d1565b9350838a1015611b96576040805160e560020a62461bcd02815260206004820152603960248201527f6f766572626964207072696365206d757374206d61746368206d696e696d756d60448201527f20707269636520696e6372656d656e7420637269746572696100000000000000606482015290519081900360840190fd5b6001890154600480547001000000000000000000000000000000009092046001608060020a03169182019055808703975092505b600754420191506000871115611bf357508754680100000000000000009004600160a060020a03165b60a0604051908101604052808367ffffffffffffffff16815260200133600160a060020a031681526020018c61ffff168152602001346001608060020a03168152602001600a546001608060020a0316815250600c60008e815260200190815260200160002060008201518160000160006101000a81548167ffffffffffffffff021916908367ffffffffffffffff16021790555060208201518160000160086101000a815481600160a060020a030219169083600160a060020a03160217905550604082015181600001601c6101000a81548161ffff021916908361ffff16021790555060608201518160010160006101000a8154816001608060020a0302191690836001608060020a0316021790555060808201518160010160106101000a8154816001608060020a0302191690836001608060020a031602179055509050506000871115611d4957611d498c828961249c565b604080518d8152336020820152808201849052346060820152608081018c905290517f05a7f246d4cdcfed1a85bd6331d1638fa8d47fffd48ede9a22f93d06641f309c9181900360a00190a1505050505050505050505050565b600154600160a060020a031681565b600b5481565b600154600160a060020a03163314611e1c576040805160e560020a62461bcd02815260206004820152602d602482015260008051602061272383398151915260448201526000805160206126e3833981519152606482015290519081900360840190fd5b60065460ff1615611e65576040805160e560020a62461bcd02815260206004820152601f6024820152600080516020612743833981519152604482015290519081900360640190fd5b600854600282021115611ee8576040805160e560020a62461bcd02815260206004820152603760248201527f756e7375636365737366756c2076616c7565206d757374206265203c3d20686160448201527f6c66206f66206d696e696d756d546f74616c56616c7565000000000000000000606482015290519081900360840190fd5b600a8190556040805182815290517ffa4a24dc8c85bb39a38146f43e5611e67c18d4df990b85be0fa17a8d9c7f3cc99181900360200190a150565b600a5481565b600c602052600090815260409020805460019091015467ffffffffffffffff821691680100000000000000008104600160a060020a03169160e060020a90910461ffff16906001608060020a038082169170010000000000000000000000000000000090041685565b60095481565b600d54600160a060020a031681565b600654600090819060ff161515612008576040805160e560020a62461bcd02815260206004820152601b60248201527f636f6e7472616374206e6565647320746f2062652066726f7a656e0000000000604482015290519081900360640190fd5b6000838152600c60205260409020805490925061202e9067ffffffffffffffff16612491565b15156120aa576040805160e560020a62461bcd02815260206004820152602760248201527f6f6666657220746f2077697468647261772066756e64732066726f6d206d757360448201527f7420657869737400000000000000000000000000000000000000000000000000606482015290519081900360840190fd5b8154680100000000000000009004600160a060020a0316331461213d576040805160e560020a62461bcd02815260206004820152602f60248201527f6f6e6c7920626964646572732063616e2077697468647261772074686569722060448201527f66756e647320696e20657363726f770000000000000000000000000000000000606482015290519081900360840190fd5b506001808201546000848152600c60205260408082208054600160f060020a031916815590930181905591516001608060020a0390911691339183156108fc0291849190818181858888f1935050505015801561219e573d6000803e3d6000fd5b506040805184815233602082015280820183905290517f2014255827f37802573fb6164526f1d41d309fd57001e38c8f169ffb761170989181900360600190a1505050565b6006546000908190819081908190819060ff1615612239576040805160e560020a62461bcd02815260206004820152601f6024820152600080516020612743833981519152604482015290519081900360640190fd5b6000878152600c60205260409020805490965067ffffffffffffffff16945061226185612491565b15156122b7576040805160e560020a62461bcd02815260206004820152601a60248201527f6f6666657220746f2063616e63656c206d757374206578697374000000000000604482015290519081900360640190fd5b6122c085612497565b151561233c576040805160e560020a62461bcd02815260206004820152602360248201527f6f6666657220746f2063616e63656c206d757374206e6f74206265206578706960448201527f7265640000000000000000000000000000000000000000000000000000000000606482015290519081900360840190fd5b8554680100000000000000009004600160a060020a031693503384146123d2576040805160e560020a62461bcd02815260206004820152602e60248201527f63616c6c6572206d75737420626520626964646572206f66206f66666572207460448201527f6f2062652063616e63656c6c6564000000000000000000000000000000000000606482015290519081900360840190fd5b600186015486546001608060020a0390911693506123fc90849060e060020a900461ffff166126b4565b6000888152600c602052604081208054600160f060020a03191681556001015560048054828603908101909155909250905061243987858461249c565b60408051888152600160a060020a03861660208201528082018490526060810183905290517f0f30ae9004015531e44539aa93fcbe6e33146abeeed21661204fa432da6bc0759181900360800190a150505050505050565b60001090565b421090565b604051600090600160a060020a0384169083156108fc0290849084818181858888f19350505050905080151561251d57600580548301905560408051858152600160a060020a038516602082015280820184905290517f47b2b7bdacd5004b5f20c86ec07ecda11e5ac511d4ad9ed9ed2c5af4c42cb4bd9181900360600190a15b50505050565b6127108111156125a3576040805160e560020a62461bcd02815260206004820152602560248201527f6f6666657220637574206d75737420626520612076616c69642062617369732060448201527f706f696e74000000000000000000000000000000000000000000000000000000606482015290519081900360840190fd5b600b55565b612710811115612628576040805160e560020a62461bcd02815260206004820152603360248201527f6d696e696d756d20707269636520696e6372656d656e74206d7573742062652060448201527f612076616c696420626173697320706f696e7400000000000000000000000000606482015290519081900360840190fd5b600955565b600281028210156126ae576040805160e560020a62461bcd02815260206004820152602d60248201527f6d696e696d756d2076616c7565206d757374206265203e3d2032202a20756e7360448201527f75636365737366756c2066656500000000000000000000000000000000000000606482015290519081900360840190fd5b50600855565b6000816127100183612710028115156126c957fe5b049392505050565b6009546127109081019190910204905600686973206f7065726174696f6e000000000000000000000000000000000000006f6e6c792043454f20697320616c6c6f77656420746f20706572666f726d20746f6e6c7920434f4f20697320616c6c6f77656420746f20706572666f726d2074636f6e7472616374206e6565647320746f206e6f742062652066726f7a656e00a165627a7a723058201ff89d31a687ef3fd5ac394fe324d96b89ccbc571da60666a37f7285a49ccade0029",
  "source": "pragma solidity ^0.4.24;\n\nimport \"./ERC721/ERC721Interface.sol\";\nimport \"./OffersBase.sol\";\n\n/// @title Contract that manages funds from creation to fulfillment for offers made on any ERC-721 token.\n/// @author Dapper Labs (https://www.dapperlabs.com)\n/// @notice This generic contract interfaces with any ERC-721 compliant contract\ncontract Offers is OffersBase {\n\n    // This is the main Offers contract. In order to keep our code separated into logical sections,\n    // we've broken it up into multiple files using inheritance. This allows us to keep related code\n    // collocated while still avoiding a single large file, which would be harder to maintain. The breakdown\n    // is as follows:\n    //\n    //      - OffersBase: This contract defines the fundamental code that the main contract uses.\n    //              This includes our main data storage, data types, events, and internal functions for\n    //              managing offers in their lifecycle.\n    //\n    //      - OffersConfig: This contract manages the various configuration values that determine the\n    //              details of the offers that get created, cancelled, overbid, expired, and fulfilled,\n    //              as well as the fee structure that the offers will be operating with.\n    //\n    //      - OffersAccessControl: This contract manages the various addresses and constraints for\n    //              operations that can be executed only by specific roles. The roles are: CEO, CFO,\n    //              COO, and LostAndFound. Additionally, this contract exposes functions for the CFO\n    //              to withdraw earnings and the LostAndFound account to withdraw any lost funds.\n\n    /// @dev The ERC-165 interface signature for ERC-721.\n    ///  Ref: https://github.com/ethereum/EIPs/issues/165\n    ///  Ref: https://github.com/ethereum/EIPs/issues/721\n    bytes4 constant InterfaceSignature_ERC721 = bytes4(0x9a20483d);\n\n    // Reference to contract tracking NFT ownership\n    ERC721 public nonFungibleContract;\n\n    /// @notice Creates the main Offers smart contract instance and sets initial configuration values\n    /// @param _nftAddress The address of the ERC-721 contract managing NFT ownership\n    /// @param _cooAddress The address of the COO to set\n    /// @param _globalDuration The initial globalDuration value to set\n    /// @param _minimumTotalValue The initial minimumTotalValue value to set\n    /// @param _minimumPriceIncrement The initial minimumPriceIncrement value to set\n    /// @param _unsuccessfulFee The initial unsuccessfulFee value to set\n    /// @param _offerCut The initial offerCut value to set\n    constructor(\n      address _nftAddress,\n      address _cooAddress,\n      uint256 _globalDuration,\n      uint256 _minimumTotalValue,\n      uint256 _minimumPriceIncrement,\n      uint256 _unsuccessfulFee,\n      uint256 _offerCut\n    ) public {\n        // The creator of the contract is the ceo\n        ceoAddress = msg.sender;\n\n        // Get reference of the address of the NFT contract\n        ERC721 candidateContract = ERC721(_nftAddress);\n        require(candidateContract.supportsInterface(InterfaceSignature_ERC721), \"NFT Contract needs to support ERC721 Interface\");\n        nonFungibleContract = candidateContract;\n\n        setCOO(_cooAddress);\n\n        // Set initial claw-figuration values\n        globalDuration = _globalDuration;\n        unsuccessfulFee = _unsuccessfulFee;\n        _setOfferCut(_offerCut);\n        _setMinimumPriceIncrement(_minimumPriceIncrement);\n        _setMinimumTotalValue(_minimumTotalValue, _unsuccessfulFee);\n    }\n\n    /// @notice Creates an offer on a token. This contract receives bidders funds and refunds the previous bidder\n    ///  if this offer overbids a previously active (unexpired) offer.\n    /// @notice When this offer overbids a previously active offer, this offer must have a price greater than\n    ///  a certain percentage of the previous offer price, which the minimumOverbidPrice basis point specifies.\n    ///  A flat fee is also taken from the previous offer before refund the previous bidder.\n    /// @notice When there is a previous offer that has already expired but not yet been removed from storage,\n    ///  the new offer can be created with any total value as long as it is greater than the minimumTotalValue.\n    /// @notice Works only when contract is not frozen.\n    /// @param _tokenId The token a bidder wants to create an offer for.\n    function createOffer(uint256 _tokenId) external payable whenNotFrozen {\n        // T = msg.value\n        // Check that the total amount of the offer isn't below the meow-nimum\n        require(msg.value >= minimumTotalValue, \"offer total value must be above minimumTotalValue\");\n\n        uint256 _offerCut = offerCut;\n\n        // P, the price that owner will see and receive if the offer is accepted.\n        uint256 offerPrice = _computeOfferPrice(msg.value, _offerCut);\n\n        Offer storage previousOffer = tokenIdToOffer[_tokenId];\n        uint256 previousExpiresAt = previousOffer.expiresAt;\n\n        uint256 toRefund = 0;\n\n        // Check if tokenId already has an offer\n        if (_offerExists(previousExpiresAt)) {\n            uint256 previousOfferTotal = uint256(previousOffer.total);\n\n            // If the previous offer is still active, the new offer needs to match the previous offer's price\n            // plus a minimum required increment (minimumOverbidPrice).\n            // We calculate the previous offer's price, the corresponding minimumOverbidPrice, and check if the\n            // new offerPrice is greater than or equal to the minimumOverbidPrice\n            // The owner is fur-tunate to have such a desirable kitty\n            if (_isOfferActive(previousExpiresAt)) {\n                uint256 previousPriceForOwner = _computeOfferPrice(previousOfferTotal, uint256(previousOffer.offerCut));\n                uint256 minimumOverbidPrice = _computeMinimumOverbidPrice(previousPriceForOwner);\n                require(offerPrice >= minimumOverbidPrice, \"overbid price must match minimum price increment criteria\");\n            }\n\n            uint256 cfoEarnings = previousOffer.unsuccessfulFee;\n            // Bidder gets refund: T - flat fee\n            // The in-fur-ior offer gets refunded for free, how nice.\n            toRefund = previousOfferTotal - cfoEarnings;\n\n            totalCFOEarnings += cfoEarnings;\n        }\n\n        uint256 newExpiresAt = now + globalDuration;\n\n        // Get a reference of previous bidder address before overwriting with new offer.\n        // This is only needed if there is refund\n        address previousBidder;\n        if (toRefund > 0) {\n            previousBidder = previousOffer.bidder;\n        }\n\n        tokenIdToOffer[_tokenId] = Offer(\n            uint64(newExpiresAt),\n            msg.sender,\n            uint16(_offerCut),\n            uint128(msg.value),\n            uint128(unsuccessfulFee)\n        );\n\n        // Postpone the refund until the previous offer has been overwritten by the new offer.\n        if (toRefund > 0) {\n            // Finally, sending funds to this bidder. If failed, the fund will be kept in escrow\n            // under lostAndFound's address\n            _tryPushFunds(\n                _tokenId,\n                previousBidder,\n                toRefund\n            );\n        }\n\n        emit OfferCreated(\n            _tokenId,\n            msg.sender,\n            newExpiresAt,\n            msg.value,\n            offerPrice\n        );\n    }\n\n    /// @notice Cancels an offer that must exist and be active currently. This moves funds from this contract\n    ///  back to the the bidder, after a cut has been taken.\n    /// @notice Works only when contract is not frozen.\n    /// @param _tokenId The token specified by the offer a bidder wants to cancel\n    function cancelOffer(uint256 _tokenId) external whenNotFrozen {\n        // Check that offer exists and is active currently\n        Offer storage offer = tokenIdToOffer[_tokenId];\n        uint256 expiresAt = offer.expiresAt;\n        require(_offerExists(expiresAt), \"offer to cancel must exist\");\n        require(_isOfferActive(expiresAt), \"offer to cancel must not be expired\");\n\n        address bidder = offer.bidder;\n        require(msg.sender == bidder, \"caller must be bidder of offer to be cancelled\");\n\n        // T\n        uint256 total = uint256(offer.total);\n        // P = T - S; Bidder gets all of P, CFO gets all of T - P\n        uint256 toRefund = _computeOfferPrice(total, offer.offerCut);\n        uint256 cfoEarnings = total - toRefund;\n\n        // Remove offer from storage\n        delete tokenIdToOffer[_tokenId];\n\n        // Add to CFO's balance\n        totalCFOEarnings += cfoEarnings;\n\n        // Transfer money in escrow back to bidder\n        _tryPushFunds(_tokenId, bidder, toRefund);\n\n        emit OfferCancelled(\n            _tokenId,\n            bidder,\n            toRefund,\n            cfoEarnings\n        );\n    }\n\n    /// @notice Fulfills an offer that must exist and be active currently. This moves the funds of the\n    ///  offer held in escrow in this contract to the owner of the token, and atomically transfers the\n    ///  token from the owner to the bidder. A cut is taken by this contract.\n    /// @notice We also acknowledge the paw-sible difficulties of keeping in-sync with the Ethereum\n    ///  blockchain, and have allowed for fulfilling offers by specifying the _minOfferPrice at which the owner\n    ///  of the token is happy to accept the offer. Thus, the owner will always receive the latest offer\n    ///  price, which can only be at least the _minOfferPrice that was specified. Specifically, this\n    ///  implementation is designed to prevent the edge case where the owner accidentally accepts an offer\n    ///  with a price lower than intended. For example, this can happen when the owner fulfills the offer\n    ///  precisely when the offer expires and is subsequently replaced with a new offer priced lower.\n    /// @notice Works only when contract is not frozen.\n    /// @dev We make sure that the token is not on auction when we fulfill an offer, because the owner of the\n    ///  token would be the auction contract instead of the user. This function requires that this Offers contract\n    ///  is approved for the token in order to make the call to transfer token ownership. This is sufficient\n    ///  because approvals are cleared on transfer (including transfer to the auction).\n    /// @param _tokenId The token specified by the offer that will be fulfilled.\n    /// @param _minOfferPrice The minimum price at which the owner of the token is happy to accept the offer.\n    function fulfillOffer(uint256 _tokenId, uint128 _minOfferPrice) external whenNotFrozen {\n        // Check that offer exists and is active currently\n        Offer storage offer = tokenIdToOffer[_tokenId];\n        uint256 expiresAt = offer.expiresAt;\n        require(_offerExists(expiresAt), \"offer to fulfill must exist\");\n        require(_isOfferActive(expiresAt), \"offer to fulfill must not be expired\");\n\n        // Get the owner of the token\n        address owner = nonFungibleContract.ownerOf(_tokenId);\n\n        require(msg.sender == cooAddress || msg.sender == owner, \"only COO or the owner can fulfill order\");\n\n        // T\n        uint256 total = uint256(offer.total);\n        // P = T - S\n        uint256 offerPrice = _computeOfferPrice(total, offer.offerCut);\n\n        // Check if the offer price is below the minimum that the owner is happy to accept the offer for\n        require(offerPrice >= _minOfferPrice, \"cannot fulfill offer  offer price too low\");\n\n        // Get a reference of the bidder address befur removing offer from storage\n        address bidder = offer.bidder;\n\n        // Remove offer from storage\n        delete tokenIdToOffer[_tokenId];\n\n        // Transfer token on behalf of owner to bidder\n        nonFungibleContract.transferFrom(owner, bidder, _tokenId);\n\n        // NFT has been transferred! Now calculate fees and transfer fund to the owner\n        // T - P, the CFO's earnings\n        uint256 cfoEarnings = total - offerPrice;\n        totalCFOEarnings += cfoEarnings;\n\n        // Transfer money in escrow to owner\n        _tryPushFunds(_tokenId, owner, offerPrice);\n\n        emit OfferFulfilled(\n            _tokenId,\n            bidder,\n            owner,\n            offerPrice,\n            cfoEarnings\n        );\n    }\n\n    /// @notice Removes any existing and inactive (expired) offers from storage. In doing so, this contract\n    ///  takes a flat fee from the total amount attached to each offer before sending the remaining funds\n    ///  back to the bidder.\n    /// @notice Nothing will be done if the offer for a token is either non-existent or active.\n    /// @param _tokenIds The array of tokenIds that will be removed from storage\n    function batchRemoveExpired(uint256[] _tokenIds) external whenNotFrozen {\n        uint256 len = _tokenIds.length;\n\n        // Use temporary accumulator\n        uint256 cumulativeCFOEarnings = 0;\n\n        for (uint256 i = 0; i < len; i++) {\n            uint256 tokenId = _tokenIds[i];\n            Offer storage offer = tokenIdToOffer[tokenId];\n            uint256 expiresAt = offer.expiresAt;\n\n            // Skip the offer if not exist\n            if (!_offerExists(expiresAt)) {\n                continue;\n            }\n            // Skip if the offer has not expired yet\n            if (_isOfferActive(expiresAt)) {\n                continue;\n            }\n\n            // Get a reference of the bidder address before removing offer from storage\n            address bidder = offer.bidder;\n\n            // CFO gets the flat fee\n            uint256 cfoEarnings = uint256(offer.unsuccessfulFee);\n\n            // Bidder gets refund: T - flat\n            uint256 toRefund = uint256(offer.total) - cfoEarnings;\n\n            // Ensure the previous offer has been removed before refunding\n            delete tokenIdToOffer[tokenId];\n\n            // Add to cumulative balance of CFO's earnings\n            cumulativeCFOEarnings += cfoEarnings;\n\n            // Finally, sending funds to this bidder. If failed, the fund will be kept in escrow\n            // under lostAndFound's address\n            _tryPushFunds(\n                tokenId,\n                bidder,\n                toRefund\n            );\n\n            emit ExpiredOfferRemoved(\n                tokenId,\n                bidder,\n                toRefund,\n                cfoEarnings\n            );\n        }\n\n        // Add to CFO's balance if any expired offer has been removed\n        if (cumulativeCFOEarnings > 0) {\n            totalCFOEarnings += cumulativeCFOEarnings;\n        }\n    }\n\n    /// @notice Updates an existing and active offer by setting a new expiration time and, optionally, raise\n    ///  the price of the offer.\n    /// @notice As the offers are always using the configuration values currently in storage, the updated\n    ///  offer may be adhering to configuration values that are different at the time of its original creation.\n    /// @dev We check msg.value to determine if the offer price should be raised. If 0, only a new\n    ///  expiration time is set.\n    /// @param _tokenId The token specified by the offer that will be updated.\n    function updateOffer(uint256 _tokenId) external payable whenNotFrozen {\n        // Check that offer exists and is active currently\n        Offer storage offer = tokenIdToOffer[_tokenId];\n        uint256 expiresAt = uint256(offer.expiresAt);\n        require(_offerExists(expiresAt), \"offer to update must exist\");\n        require(_isOfferActive(expiresAt), \"offer to update must not be expired\");\n\n        require(msg.sender == offer.bidder, \"caller must be bidder of offer to be updated\");\n\n        uint256 newExpiresAt = now + globalDuration;\n\n        // Check if the caller wants to raise the offer as well\n        if (msg.value > 0) {\n            // Set the new price\n            offer.total += uint128(msg.value);\n        }\n\n        offer.expiresAt = uint64(newExpiresAt);\n\n        emit OfferUpdated(_tokenId, msg.sender, newExpiresAt, msg.value);\n\n    }\n\n    /// @notice Sends funds of each existing offer held in escrow back to bidders. The function is callable\n    ///  by anyone.\n    /// @notice Works only when contract is frozen. In this case, we want to allow all funds to be returned\n    ///  without taking any fees.\n    /// @param _tokenId The token specified by the offer a bidder wants to withdraw funds for.\n    function bidderWithdrawFunds(uint256 _tokenId) external whenFrozen {\n        // Check that offer exists\n        Offer storage offer = tokenIdToOffer[_tokenId];\n        require(_offerExists(offer.expiresAt), \"offer to withdraw funds from must exist\");\n        require(msg.sender == offer.bidder, \"only bidders can withdraw their funds in escrow\");\n\n        // Get a reference of the total to withdraw before removing offer from storage\n        uint256 total = uint256(offer.total);\n\n        delete tokenIdToOffer[_tokenId];\n\n        // Send funds back to bidders!\n        msg.sender.transfer(total);\n\n        emit BidderWithdrewFundsWhenFrozen(_tokenId, msg.sender, total);\n    }\n\n    /// @notice we don't accept any value transfer.\n    function() external payable {\n        revert(\"we don't accept any payments!\");\n    }\n}\n",
  "sourcePath": "/Users/leo/az/ck-offers-contracts/contracts/Offers.sol",
  "compiler": {
    "name": "solc",
    "version": "0.4.24+commit.e67f0147.Emscripten.clang"
  },
  "schemaVersion": "2.0.1",
  "updatedAt": "2018-12-04T21:58:24.759Z"
}