{
  "contractName": "TestContract",
  "abi": [
    {
      "constant": true,
      "inputs": [
        {
          "name": "",
          "type": "uint256"
        }
      ],
      "name": "publicBytes32Array",
      "outputs": [
        {
          "name": "",
          "type": "bytes32"
        }
      ],
      "payable": false,
      "stateMutability": "view",
      "type": "function"
    },
    {
      "constant": true,
      "inputs": [],
      "name": "publicBytes32",
      "outputs": [
        {
          "name": "",
          "type": "bytes32"
        }
      ],
      "payable": false,
      "stateMutability": "view",
      "type": "function"
    },
    {
      "constant": true,
      "inputs": [
        {
          "name": "",
          "type": "uint256"
        }
      ],
      "name": "tokens",
      "outputs": [
        {
          "name": "owner",
          "type": "address"
        },
        {
          "name": "metadata",
          "type": "bytes32"
        }
      ],
      "payable": false,
      "stateMutability": "view",
      "type": "function"
    },
    {
      "constant": true,
      "inputs": [
        {
          "name": "",
          "type": "uint256"
        }
      ],
      "name": "publicUint256Array",
      "outputs": [
        {
          "name": "",
          "type": "uint256"
        }
      ],
      "payable": false,
      "stateMutability": "view",
      "type": "function"
    },
    {
      "constant": true,
      "inputs": [],
      "name": "publicPayableAddress",
      "outputs": [
        {
          "name": "",
          "type": "address"
        }
      ],
      "payable": false,
      "stateMutability": "view",
      "type": "function"
    },
    {
      "constant": true,
      "inputs": [],
      "name": "publicUint256",
      "outputs": [
        {
          "name": "",
          "type": "uint256"
        }
      ],
      "payable": false,
      "stateMutability": "view",
      "type": "function"
    },
    {
      "constant": true,
      "inputs": [],
      "name": "publicBool",
      "outputs": [
        {
          "name": "",
          "type": "bool"
        }
      ],
      "payable": false,
      "stateMutability": "view",
      "type": "function"
    },
    {
      "constant": true,
      "inputs": [],
      "name": "publicAddress",
      "outputs": [
        {
          "name": "",
          "type": "address"
        }
      ],
      "payable": false,
      "stateMutability": "view",
      "type": "function"
    },
    {
      "inputs": [
        {
          "name": "publicBool_",
          "type": "bool"
        },
        {
          "name": "publicBytes32_",
          "type": "bytes32"
        },
        {
          "name": "publicAddress_",
          "type": "address"
        },
        {
          "name": "publicPayableAddress_",
          "type": "address"
        },
        {
          "name": "publicUint256Array_",
          "type": "uint256[]"
        },
        {
          "name": "publicBytes32Array_",
          "type": "bytes32[]"
        }
      ],
      "payable": false,
      "stateMutability": "nonpayable",
      "type": "constructor"
    }
  ],
  "bytecode": "0x608060405234801561001057600080fd5b5060405161065f38038061065f833981018060405260c081101561003357600080fd5b8101908080519060200190929190805190602001909291908051906020019092919080519060200190929190805164010000000081111561007357600080fd5b8281019050602081018481111561008957600080fd5b81518560208202830111640100000000821117156100a657600080fd5b505092919060200180516401000000008111156100c257600080fd5b828101905060208101848111156100d857600080fd5b81518560208202830111640100000000821117156100f557600080fd5b5050929190505050856000806101000a81548160ff0219169083151502179055508460028190555083600360006101000a81548173ffffffffffffffffffffffffffffffffffffffff021916908373ffffffffffffffffffffffffffffffffffffffff16021790555082600460006101000a81548173ffffffffffffffffffffffffffffffffffffffff021916908373ffffffffffffffffffffffffffffffffffffffff16021790555081600590805190602001906101b59291906101d8565b5080600690805190602001906101cc929190610225565b505050505050506102bc565b828054828255906000526020600020908101928215610214579160200282015b828111156102135782518255916020019190600101906101f8565b5b5090506102219190610272565b5090565b828054828255906000526020600020908101928215610261579160200282015b82811115610260578251825591602001919060010190610245565b5b50905061026e9190610297565b5090565b61029491905b80821115610290576000816000905550600101610278565b5090565b90565b6102b991905b808211156102b557600081600090555060010161029d565b5090565b90565b610394806102cb6000396000f3fe608060405234801561001057600080fd5b50600436106100885760003560e01c8063831f34e61161005b578063831f34e6146101a45780638edbc091146101ee5780639b9d1e2b1461020c578063f676f3311461022e57610088565b80632a456ac11461008d57806340b9b5e9146100cf5780634f64b2be146100ed57806365ef16d414610162575b600080fd5b6100b9600480360360208110156100a357600080fd5b8101908080359060200190929190505050610278565b6040518082815260200191505060405180910390f35b6100d7610299565b6040518082815260200191505060405180910390f35b6101196004803603602081101561010357600080fd5b810190808035906020019092919050505061029f565b604051808373ffffffffffffffffffffffffffffffffffffffff1673ffffffffffffffffffffffffffffffffffffffff1681526020018281526020019250505060405180910390f35b61018e6004803603602081101561017857600080fd5b81019080803590602001909291905050506102e3565b6040518082815260200191505060405180910390f35b6101ac610304565b604051808273ffffffffffffffffffffffffffffffffffffffff1673ffffffffffffffffffffffffffffffffffffffff16815260200191505060405180910390f35b6101f661032a565b6040518082815260200191505060405180910390f35b610214610330565b604051808215151515815260200191505060405180910390f35b610236610342565b604051808273ffffffffffffffffffffffffffffffffffffffff1673ffffffffffffffffffffffffffffffffffffffff16815260200191505060405180910390f35b6006818154811061028557fe5b906000526020600020016000915090505481565b60025481565b60076020528060005260406000206000915090508060000160009054906101000a900473ffffffffffffffffffffffffffffffffffffffff16908060010154905082565b600581815481106102f057fe5b906000526020600020016000915090505481565b600460009054906101000a900473ffffffffffffffffffffffffffffffffffffffff1681565b60015481565b6000809054906101000a900460ff1681565b600360009054906101000a900473ffffffffffffffffffffffffffffffffffffffff168156fea165627a7a7230582008859b7b212a19bd68d9cda91ea62b0645f1f623da22031c5ee89ac3bf066e950029",
  "source": "pragma solidity >=0.5.6 <0.6.0;\n\ncontract TestContract {\n    bool public publicBool;\n    uint256 public publicUint256;\n    bytes32 public publicBytes32;\n    address public publicAddress;\n    address payable public publicPayableAddress;\n    uint256[] public publicUint256Array;\n    bytes32[] public publicBytes32Array;\n\n    struct MyToken {\n        address owner;\n        bytes32 metadata;\n    }\n\n    mapping (uint256 => MyToken) public tokens;\n\n    constructor(\n        bool publicBool_,\n        bytes32 publicBytes32_,\n        address publicAddress_,\n        address payable publicPayableAddress_,\n        uint256[] memory publicUint256Array_,\n        bytes32[] memory publicBytes32Array_\n    ) public {\n        publicBool = publicBool_;\n        publicBytes32 = publicBytes32_;\n        publicAddress = publicAddress_;\n        publicPayableAddress = publicPayableAddress_;\n        publicUint256Array = publicUint256Array_;\n        publicBytes32Array = publicBytes32Array_;\n    }\n}\n\n\n",
  "sourcePath": "/data/contracts/TestContract.sol",
  "compiler": {
    "name": "solc",
    "version": "0.5.8+commit.23d335f2.Emscripten.clang"
  },
  "schemaVersion": "3.0.11",
  "updatedAt": "2019-07-09T20:00:45.482Z",
  "devdoc": {
    "methods": {}
  },
  "userdoc": {
    "methods": {}
  }
}